{
  "_format": "hh-sol-artifact-1",
  "contractName": "CharlesSteimbergBC",
  "sourceName": "contracts/CharlesSteimbergBC.sol",
  "abi": [
    {
      "inputs": [
        {
          "internalType": "string",
          "name": "_contractURI",
          "type": "string"
        },
        {
          "internalType": "address",
          "name": "_trustedForwarder",
          "type": "address"
        }
      ],
      "stateMutability": "nonpayable",
      "type": "constructor"
    },
    {
      "anonymous": false,
      "inputs": [
        {
          "indexed": true,
          "internalType": "address",
          "name": "account",
          "type": "address"
        },
        {
          "indexed": true,
          "internalType": "address",
          "name": "operator",
          "type": "address"
        },
        {
          "indexed": false,
          "internalType": "bool",
          "name": "approved",
          "type": "bool"
        }
      ],
      "name": "ApprovalForAll",
      "type": "event"
    },
    {
      "anonymous": false,
      "inputs": [
        {
          "indexed": false,
          "internalType": "address",
          "name": "sender",
          "type": "address"
        },
        {
          "indexed": false,
          "internalType": "uint256",
          "name": "tokenId",
          "type": "uint256"
        },
        {
          "indexed": false,
          "internalType": "uint256",
          "name": "quantity",
          "type": "uint256"
        }
      ],
      "name": "CardGiven",
      "type": "event"
    },
    {
      "anonymous": false,
      "inputs": [
        {
          "indexed": false,
          "internalType": "address",
          "name": "sender",
          "type": "address"
        },
        {
          "indexed": false,
          "internalType": "uint256",
          "name": "tokenId",
          "type": "uint256"
        },
        {
          "indexed": false,
          "internalType": "uint256",
          "name": "quantity",
          "type": "uint256"
        }
      ],
      "name": "CardMinted",
      "type": "event"
    },
    {
      "anonymous": false,
      "inputs": [
        {
          "indexed": true,
          "internalType": "address",
          "name": "previousOwner",
          "type": "address"
        },
        {
          "indexed": true,
          "internalType": "address",
          "name": "newOwner",
          "type": "address"
        }
      ],
      "name": "OwnershipTransferred",
      "type": "event"
    },
    {
      "anonymous": false,
      "inputs": [
        {
          "indexed": true,
          "internalType": "address",
          "name": "operator",
          "type": "address"
        },
        {
          "indexed": true,
          "internalType": "address",
          "name": "from",
          "type": "address"
        },
        {
          "indexed": true,
          "internalType": "address",
          "name": "to",
          "type": "address"
        },
        {
          "indexed": false,
          "internalType": "uint256[]",
          "name": "ids",
          "type": "uint256[]"
        },
        {
          "indexed": false,
          "internalType": "uint256[]",
          "name": "values",
          "type": "uint256[]"
        }
      ],
      "name": "TransferBatch",
      "type": "event"
    },
    {
      "anonymous": false,
      "inputs": [
        {
          "indexed": true,
          "internalType": "address",
          "name": "operator",
          "type": "address"
        },
        {
          "indexed": true,
          "internalType": "address",
          "name": "from",
          "type": "address"
        },
        {
          "indexed": true,
          "internalType": "address",
          "name": "to",
          "type": "address"
        },
        {
          "indexed": false,
          "internalType": "uint256",
          "name": "id",
          "type": "uint256"
        },
        {
          "indexed": false,
          "internalType": "uint256",
          "name": "value",
          "type": "uint256"
        }
      ],
      "name": "TransferSingle",
      "type": "event"
    },
    {
      "anonymous": false,
      "inputs": [
        {
          "indexed": false,
          "internalType": "string",
          "name": "value",
          "type": "string"
        },
        {
          "indexed": true,
          "internalType": "uint256",
          "name": "id",
          "type": "uint256"
        }
      ],
      "name": "URI",
      "type": "event"
    },
    {
      "inputs": [
        {
          "internalType": "address",
          "name": "account",
          "type": "address"
        },
        {
          "internalType": "uint256",
          "name": "id",
          "type": "uint256"
        }
      ],
      "name": "balanceOf",
      "outputs": [
        {
          "internalType": "uint256",
          "name": "",
          "type": "uint256"
        }
      ],
      "stateMutability": "view",
      "type": "function"
    },
    {
      "inputs": [
        {
          "internalType": "address[]",
          "name": "accounts",
          "type": "address[]"
        },
        {
          "internalType": "uint256[]",
          "name": "ids",
          "type": "uint256[]"
        }
      ],
      "name": "balanceOfBatch",
      "outputs": [
        {
          "internalType": "uint256[]",
          "name": "",
          "type": "uint256[]"
        }
      ],
      "stateMutability": "view",
      "type": "function"
    },
    {
      "inputs": [],
      "name": "contractURI",
      "outputs": [
        {
          "internalType": "string",
          "name": "",
          "type": "string"
        }
      ],
      "stateMutability": "view",
      "type": "function"
    },
    {
      "inputs": [
        {
          "internalType": "address",
          "name": "account",
          "type": "address"
        },
        {
          "internalType": "address",
          "name": "operator",
          "type": "address"
        }
      ],
      "name": "isApprovedForAll",
      "outputs": [
        {
          "internalType": "bool",
          "name": "",
          "type": "bool"
        }
      ],
      "stateMutability": "view",
      "type": "function"
    },
    {
      "inputs": [
        {
          "internalType": "address",
          "name": "forwarder",
          "type": "address"
        }
      ],
      "name": "isTrustedForwarder",
      "outputs": [
        {
          "internalType": "bool",
          "name": "",
          "type": "bool"
        }
      ],
      "stateMutability": "view",
      "type": "function"
    },
    {
      "inputs": [
        {
          "internalType": "uint256",
          "name": "_quantity",
          "type": "uint256"
        },
        {
          "components": [
            {
              "internalType": "string",
              "name": "name",
              "type": "string"
            },
            {
              "internalType": "string",
              "name": "imageURI",
              "type": "string"
            },
            {
              "internalType": "string[]",
              "name": "masters",
              "type": "string[]"
            },
            {
              "internalType": "string[]",
              "name": "skills",
              "type": "string[]"
            }
          ],
          "internalType": "struct CharlesSteimbergBC.BusinessCardAttributes",
          "name": "_attributes",
          "type": "tuple"
        }
      ],
      "name": "mintCardNFT",
      "outputs": [],
      "stateMutability": "nonpayable",
      "type": "function"
    },
    {
      "inputs": [
        {
          "internalType": "uint256",
          "name": "",
          "type": "uint256"
        }
      ],
      "name": "nftCardHolderAttributes",
      "outputs": [
        {
          "internalType": "string",
          "name": "name",
          "type": "string"
        },
        {
          "internalType": "string",
          "name": "imageURI",
          "type": "string"
        }
      ],
      "stateMutability": "view",
      "type": "function"
    },
    {
      "inputs": [],
      "name": "owner",
      "outputs": [
        {
          "internalType": "address",
          "name": "",
          "type": "address"
        }
      ],
      "stateMutability": "view",
      "type": "function"
    },
    {
      "inputs": [
        {
          "internalType": "uint256",
          "name": "_id",
          "type": "uint256"
        }
      ],
      "name": "receiveBusinessCard",
      "outputs": [],
      "stateMutability": "nonpayable",
      "type": "function"
    },
    {
      "inputs": [],
      "name": "renounceOwnership",
      "outputs": [],
      "stateMutability": "nonpayable",
      "type": "function"
    },
    {
      "inputs": [
        {
          "internalType": "address",
          "name": "from",
          "type": "address"
        },
        {
          "internalType": "address",
          "name": "to",
          "type": "address"
        },
        {
          "internalType": "uint256[]",
          "name": "ids",
          "type": "uint256[]"
        },
        {
          "internalType": "uint256[]",
          "name": "amounts",
          "type": "uint256[]"
        },
        {
          "internalType": "bytes",
          "name": "data",
          "type": "bytes"
        }
      ],
      "name": "safeBatchTransferFrom",
      "outputs": [],
      "stateMutability": "nonpayable",
      "type": "function"
    },
    {
      "inputs": [
        {
          "internalType": "address",
          "name": "from",
          "type": "address"
        },
        {
          "internalType": "address",
          "name": "to",
          "type": "address"
        },
        {
          "internalType": "uint256",
          "name": "id",
          "type": "uint256"
        },
        {
          "internalType": "uint256",
          "name": "amount",
          "type": "uint256"
        },
        {
          "internalType": "bytes",
          "name": "data",
          "type": "bytes"
        }
      ],
      "name": "safeTransferFrom",
      "outputs": [],
      "stateMutability": "nonpayable",
      "type": "function"
    },
    {
      "inputs": [
        {
          "internalType": "address",
          "name": "operator",
          "type": "address"
        },
        {
          "internalType": "bool",
          "name": "approved",
          "type": "bool"
        }
      ],
      "name": "setApprovalForAll",
      "outputs": [],
      "stateMutability": "nonpayable",
      "type": "function"
    },
    {
      "inputs": [
        {
          "internalType": "string",
          "name": "_contractURI",
          "type": "string"
        }
      ],
      "name": "setContractURI",
      "outputs": [],
      "stateMutability": "nonpayable",
      "type": "function"
    },
    {
      "inputs": [
        {
          "internalType": "address",
          "name": "_trustedForwarder",
          "type": "address"
        }
      ],
      "name": "setTrustedForwarder",
      "outputs": [],
      "stateMutability": "nonpayable",
      "type": "function"
    },
    {
      "inputs": [
        {
          "internalType": "bytes4",
          "name": "interfaceId",
          "type": "bytes4"
        }
      ],
      "name": "supportsInterface",
      "outputs": [
        {
          "internalType": "bool",
          "name": "",
          "type": "bool"
        }
      ],
      "stateMutability": "view",
      "type": "function"
    },
    {
      "inputs": [
        {
          "internalType": "address",
          "name": "newOwner",
          "type": "address"
        }
      ],
      "name": "transferOwnership",
      "outputs": [],
      "stateMutability": "nonpayable",
      "type": "function"
    },
    {
      "inputs": [
        {
          "internalType": "uint256",
          "name": "_tokenId",
          "type": "uint256"
        }
      ],
      "name": "uri",
      "outputs": [
        {
          "internalType": "string",
          "name": "",
          "type": "string"
        }
      ],
      "stateMutability": "view",
      "type": "function"
    },
    {
      "inputs": [],
      "name": "versionRecipient",
      "outputs": [
        {
          "internalType": "string",
          "name": "",
          "type": "string"
        }
      ],
      "stateMutability": "pure",
      "type": "function"
    }
  ],
  "bytecode": "0x60a06040523480156200001157600080fd5b506040516200530b3803806200530b8339818101604052810190620000379190620005ce565b6040518060400160405280600481526020017f3078303000000000000000000000000000000000000000000000000000000000815250818073ffffffffffffffffffffffffffffffffffffffff1660808173ffffffffffffffffffffffffffffffffffffffff168152505050620000b4816200014e60201b60201c565b50620000d5620000c96200016a60201b60201c565b620001b460201b60201c565b8160049080519060200190620000ed9291906200031c565b5080600560006101000a81548173ffffffffffffffffffffffffffffffffffffffff021916908373ffffffffffffffffffffffffffffffffffffffff1602179055506200014660066200027a60201b620016791760201c565b505062000699565b8060029080519060200190620001669291906200031c565b5050565b60006200017d336200029060201b60201c565b156200019357601436033560601c9050620001b0565b620001a8620002ca60201b6200168f1760201c565b9050620001b1565b5b90565b6000600360009054906101000a900473ffffffffffffffffffffffffffffffffffffffff16905081600360006101000a81548173ffffffffffffffffffffffffffffffffffffffff021916908373ffffffffffffffffffffffffffffffffffffffff1602179055508173ffffffffffffffffffffffffffffffffffffffff168173ffffffffffffffffffffffffffffffffffffffff167f8be0079c531659141344cd1fd0a4f28419497f9722a3daafe3b4186f6b6457e060405160405180910390a35050565b6001816000016000828254019250508190555050565b600060805173ffffffffffffffffffffffffffffffffffffffff168273ffffffffffffffffffffffffffffffffffffffff16149050919050565b6000620002dd336200029060201b60201c565b15620002f357601436033560601c905062000310565b620003086200031460201b620016c11760201c565b905062000311565b5b90565b600033905090565b8280546200032a9062000663565b90600052602060002090601f0160209004810192826200034e57600085556200039a565b82601f106200036957805160ff19168380011785556200039a565b828001600101855582156200039a579182015b82811115620003995782518255916020019190600101906200037c565b5b509050620003a99190620003ad565b5090565b5b80821115620003c8576000816000905550600101620003ae565b5090565b6000604051905090565b600080fd5b600080fd5b600080fd5b600080fd5b6000601f19601f8301169050919050565b7f4e487b7100000000000000000000000000000000000000000000000000000000600052604160045260246000fd5b6200043582620003ea565b810181811067ffffffffffffffff82111715620004575762000456620003fb565b5b80604052505050565b60006200046c620003cc565b90506200047a82826200042a565b919050565b600067ffffffffffffffff8211156200049d576200049c620003fb565b5b620004a882620003ea565b9050602081019050919050565b60005b83811015620004d5578082015181840152602081019050620004b8565b83811115620004e5576000848401525b50505050565b600062000502620004fc846200047f565b62000460565b905082815260208101848484011115620005215762000520620003e5565b5b6200052e848285620004b5565b509392505050565b600082601f8301126200054e576200054d620003e0565b5b815162000560848260208601620004eb565b91505092915050565b600073ffffffffffffffffffffffffffffffffffffffff82169050919050565b6000620005968262000569565b9050919050565b620005a88162000589565b8114620005b457600080fd5b50565b600081519050620005c8816200059d565b92915050565b60008060408385031215620005e857620005e7620003d6565b5b600083015167ffffffffffffffff811115620006095762000608620003db565b5b620006178582860162000536565b92505060206200062a85828601620005b7565b9150509250929050565b7f4e487b7100000000000000000000000000000000000000000000000000000000600052602260045260246000fd5b600060028204905060018216806200067c57607f821691505b6020821081141562000693576200069262000634565b5b50919050565b608051614c56620006b56000396000610f050152614c566000f3fe608060405234801561001057600080fd5b50600436106101205760003560e01c8063715018a6116100ad578063da74222811610071578063da74222814610318578063e8a3d48514610334578063e985e9c514610352578063f242432a14610382578063f2fde38b1461039e57610120565b8063715018a614610287578063723a728a146102915780638da5cb5b146102c2578063938e3d7b146102e0578063a22cb465146102fc57610120565b80632eb2c2d6116100f45780632eb2c2d6146101d1578063486ff0cd146101ed5780634e1273f41461020b578063572b6c051461023b57806365af5b411461026b57610120565b8062fdd58e1461012557806301ffc9a7146101555780630e34ba50146101855780630e89341c146101a1575b600080fd5b61013f600480360381019061013a9190612c31565b6103ba565b60405161014c9190612c80565b60405180910390f35b61016f600480360381019061016a9190612cf3565b610483565b60405161017c9190612d3b565b60405180910390f35b61019f600480360381019061019a9190612d7a565b610565565b005b6101bb60048036038101906101b69190612dd6565b610824565b6040516101c89190612e9c565b60405180910390f35b6101eb60048036038101906101e691906130bb565b610d0a565b005b6101f5610dab565b6040516102029190612e9c565b60405180910390f35b6102256004803603810190610220919061324d565b610de8565b6040516102329190613383565b60405180910390f35b610255600480360381019061025091906133a5565b610f01565b6040516102629190612d3b565b60405180910390f35b61028560048036038101906102809190612dd6565b610f59565b005b61028f611070565b005b6102ab60048036038101906102a69190612dd6565b6110f8565b6040516102b99291906133d2565b60405180910390f35b6102ca61122c565b6040516102d79190613418565b60405180910390f35b6102fa60048036038101906102f5919061348e565b611256565b005b61031660048036038101906103119190613507565b6112e8565b005b610332600480360381019061032d91906133a5565b6112fe565b005b61033c6113be565b6040516103499190612e9c565b60405180910390f35b61036c60048036038101906103679190613547565b61144c565b6040516103799190612d3b565b60405180910390f35b61039c60048036038101906103979190613587565b6114e0565b005b6103b860048036038101906103b391906133a5565b611581565b005b60008073ffffffffffffffffffffffffffffffffffffffff168373ffffffffffffffffffffffffffffffffffffffff16141561042b576040517f08c379a000000000000000000000000000000000000000000000000000000000815260040161042290613690565b60405180910390fd5b60008083815260200190815260200160002060008473ffffffffffffffffffffffffffffffffffffffff1673ffffffffffffffffffffffffffffffffffffffff16815260200190815260200160002054905092915050565b60007fd9b67a26000000000000000000000000000000000000000000000000000000007bffffffffffffffffffffffffffffffffffffffffffffffffffffffff1916827bffffffffffffffffffffffffffffffffffffffffffffffffffffffff1916148061054e57507f0e89341c000000000000000000000000000000000000000000000000000000007bffffffffffffffffffffffffffffffffffffffffffffffffffffffff1916827bffffffffffffffffffffffffffffffffffffffffffffffffffffffff1916145b8061055e575061055d826116c9565b5b9050919050565b61056d611733565b73ffffffffffffffffffffffffffffffffffffffff1661058b61122c565b73ffffffffffffffffffffffffffffffffffffffff16146105e1576040517f08c379a00000000000000000000000000000000000000000000000000000000081526004016105d8906136fc565b60405180910390fd5b60006105ed6006611765565b90506106116105fa611733565b828560405180602001604052806000815250611773565b604051806080016040528083806000019061062c919061372b565b8080601f016020809104026020016040519081016040528093929190818152602001838380828437600081840152601f19601f820116905080830192505050505050508152602001838060200190610684919061372b565b8080601f016020809104026020016040519081016040528093929190818152602001838380828437600081840152601f19601f8201169050808301925050505050505081526020018380604001906106dc919061378e565b906106e79190613945565b81526020018380606001906106fc919061378e565b906107079190613945565b81525060076000838152602001908152602001600020600082015181600001908051906020019061073992919061299c565b50602082015181600101908051906020019061075692919061299c565b506040820151816002019080519060200190610773929190612a22565b506060820151816003019080519060200190610790929190612a22565b509050506107d36040518060400160405280601d81526020017f4d696e746564204974656d204e465420772f20746f6b656e496420257300000081525082611909565b6107dd6006611679565b7fcb1c56d5745b05695241c17b7cfaece9a64f70bc32508c0997990633be8056ff610806611733565b82856040516108179392919061395a565b60405180910390a1505050565b6060600060076000848152602001908152602001600020604051806080016040529081600082018054610856906139c0565b80601f0160208091040260200160405190810160405280929190818152602001828054610882906139c0565b80156108cf5780601f106108a4576101008083540402835291602001916108cf565b820191906000526020600020905b8154815290600101906020018083116108b257829003601f168201915b505050505081526020016001820180546108e8906139c0565b80601f0160208091040260200160405190810160405280929190818152602001828054610914906139c0565b80156109615780601f1061093657610100808354040283529160200191610961565b820191906000526020600020905b81548152906001019060200180831161094457829003601f168201915b5050505050815260200160028201805480602002602001604051908101604052809291908181526020016000905b82821015610a3b5783829060005260206000200180546109ae906139c0565b80601f01602080910402602001604051908101604052809291908181526020018280546109da906139c0565b8015610a275780601f106109fc57610100808354040283529160200191610a27565b820191906000526020600020905b815481529060010190602001808311610a0a57829003601f168201915b50505050508152602001906001019061098f565b50505050815260200160038201805480602002602001604051908101604052809291908181526020016000905b82821015610b14578382906000526020600020018054610a87906139c0565b80601f0160208091040260200160405190810160405280929190818152602001828054610ab3906139c0565b8015610b005780601f10610ad557610100808354040283529160200191610b00565b820191906000526020600020905b815481529060010190602001808311610ae357829003601f168201915b505050505081526020019060010190610a68565b50505050815250509050606060005b826040015151811015610bd4576000811415610b7e5782604001518181518110610b5057610b4f6139f2565b5b6020026020010151604051602001610b689190613b1b565b6040516020818303038152906040529150610bc1565b8183604001518281518110610b9657610b956139f2565b5b6020026020010151604051602001610baf929190613bba565b60405160208183030381529060405291505b8080610bcc90613c23565b915050610b23565b50606060005b836060015151811015610c8b576000811415610c355783606001518181518110610c0757610c066139f2565b5b6020026020010151604051602001610c1f9190613cde565b6040516020818303038152906040529150610c78565b8184606001518281518110610c4d57610c4c6139f2565b5b6020026020010151604051602001610c66929190613d0b565b60405160208183030381529060405291505b8080610c8390613c23565b915050610bda565b506000610cce8460000151610c9f886119a5565b86602001518686604051602001610cba959493929190613ee7565b604051602081830303815290604052611b06565b9050600081604051602001610ce39190613fb5565b6040516020818303038152906040529050610cfd81611c9e565b8095505050505050919050565b610d12611733565b73ffffffffffffffffffffffffffffffffffffffff168573ffffffffffffffffffffffffffffffffffffffff161480610d585750610d5785610d52611733565b61144c565b5b610d97576040517f08c379a0000000000000000000000000000000000000000000000000000000008152600401610d8e90614049565b60405180910390fd5b610da48585858585611d37565b5050505050565b60606040518060400160405280600181526020017f3100000000000000000000000000000000000000000000000000000000000000815250905090565b60608151835114610e2e576040517f08c379a0000000000000000000000000000000000000000000000000000000008152600401610e25906140db565b60405180910390fd5b6000835167ffffffffffffffff811115610e4b57610e4a612ec3565b5b604051908082528060200260200182016040528015610e795781602001602082028036833780820191505090505b50905060005b8451811015610ef657610ec6858281518110610e9e57610e9d6139f2565b5b6020026020010151858381518110610eb957610eb86139f2565b5b60200260200101516103ba565b828281518110610ed957610ed86139f2565b5b60200260200101818152505080610eef90613c23565b9050610e7f565b508091505092915050565b60007f000000000000000000000000000000000000000000000000000000000000000073ffffffffffffffffffffffffffffffffffffffff168273ffffffffffffffffffffffffffffffffffffffff16149050919050565b6000610f6c610f66611733565b836103ba565b14610fac576040517f08c379a0000000000000000000000000000000000000000000000000000000008152600401610fa39061416d565b60405180910390fd5b6000610fbf610fb961122c565b836103ba565b11610fff576040517f08c379a0000000000000000000000000000000000000000000000000000000008152600401610ff6906141ff565b60405180910390fd5b61102a61100a61122c565b611012611733565b8360016040518060200160405280600081525061204b565b7f2d96b6fd624408a355de8973eb750a8dbaa458d6711dc7389eca3998d28af241611053611733565b82600160405161106593929190614264565b60405180910390a150565b611078611733565b73ffffffffffffffffffffffffffffffffffffffff1661109661122c565b73ffffffffffffffffffffffffffffffffffffffff16146110ec576040517f08c379a00000000000000000000000000000000000000000000000000000000081526004016110e3906136fc565b60405180910390fd5b6110f660006122cd565b565b600760205280600052604060002060009150905080600001805461111b906139c0565b80601f0160208091040260200160405190810160405280929190818152602001828054611147906139c0565b80156111945780601f1061116957610100808354040283529160200191611194565b820191906000526020600020905b81548152906001019060200180831161117757829003601f168201915b5050505050908060010180546111a9906139c0565b80601f01602080910402602001604051908101604052809291908181526020018280546111d5906139c0565b80156112225780601f106111f757610100808354040283529160200191611222565b820191906000526020600020905b81548152906001019060200180831161120557829003601f168201915b5050505050905082565b6000600360009054906101000a900473ffffffffffffffffffffffffffffffffffffffff16905090565b61125e611733565b73ffffffffffffffffffffffffffffffffffffffff1661127c61122c565b73ffffffffffffffffffffffffffffffffffffffff16146112d2576040517f08c379a00000000000000000000000000000000000000000000000000000000081526004016112c9906136fc565b60405180910390fd5b8181600491906112e3929190612a82565b505050565b6112fa6112f3611733565b8383612393565b5050565b611306611733565b73ffffffffffffffffffffffffffffffffffffffff1661132461122c565b73ffffffffffffffffffffffffffffffffffffffff161461137a576040517f08c379a0000000000000000000000000000000000000000000000000000000008152600401611371906136fc565b60405180910390fd5b80600560006101000a81548173ffffffffffffffffffffffffffffffffffffffff021916908373ffffffffffffffffffffffffffffffffffffffff16021790555050565b600480546113cb906139c0565b80601f01602080910402602001604051908101604052809291908181526020018280546113f7906139c0565b80156114445780601f1061141957610100808354040283529160200191611444565b820191906000526020600020905b81548152906001019060200180831161142757829003601f168201915b505050505081565b6000600160008473ffffffffffffffffffffffffffffffffffffffff1673ffffffffffffffffffffffffffffffffffffffff16815260200190815260200160002060008373ffffffffffffffffffffffffffffffffffffffff1673ffffffffffffffffffffffffffffffffffffffff16815260200190815260200160002060009054906101000a900460ff16905092915050565b6114e8611733565b73ffffffffffffffffffffffffffffffffffffffff168573ffffffffffffffffffffffffffffffffffffffff16148061152e575061152d85611528611733565b61144c565b5b61156d576040517f08c379a00000000000000000000000000000000000000000000000000000000081526004016115649061430d565b60405180910390fd5b61157a858585858561204b565b5050505050565b611589611733565b73ffffffffffffffffffffffffffffffffffffffff166115a761122c565b73ffffffffffffffffffffffffffffffffffffffff16146115fd576040517f08c379a00000000000000000000000000000000000000000000000000000000081526004016115f4906136fc565b60405180910390fd5b600073ffffffffffffffffffffffffffffffffffffffff168173ffffffffffffffffffffffffffffffffffffffff16141561166d576040517f08c379a00000000000000000000000000000000000000000000000000000000081526004016116649061439f565b60405180910390fd5b611676816122cd565b50565b6001816000016000828254019250508190555050565b600061169a33610f01565b156116ae57601436033560601c90506116bd565b6116b66116c1565b90506116be565b5b90565b600033905090565b60007f01ffc9a7000000000000000000000000000000000000000000000000000000007bffffffffffffffffffffffffffffffffffffffffffffffffffffffff1916827bffffffffffffffffffffffffffffffffffffffffffffffffffffffff1916149050919050565b600061173e33610f01565b1561175257601436033560601c9050611761565b61175a61168f565b9050611762565b5b90565b600081600001549050919050565b600073ffffffffffffffffffffffffffffffffffffffff168473ffffffffffffffffffffffffffffffffffffffff1614156117e3576040517f08c379a00000000000000000000000000000000000000000000000000000000081526004016117da90614431565b60405180910390fd5b60006117ed611733565b905061180e816000876117ff88612500565b61180888612500565b8761257a565b8260008086815260200190815260200160002060008773ffffffffffffffffffffffffffffffffffffffff1673ffffffffffffffffffffffffffffffffffffffff168152602001908152602001600020600082825461186d9190614451565b925050819055508473ffffffffffffffffffffffffffffffffffffffff16600073ffffffffffffffffffffffffffffffffffffffff168273ffffffffffffffffffffffffffffffffffffffff167fc3d58168c5ae7397731d063d5bbf3d657854427343f4c083240f7aacaa2d0f6287876040516118eb9291906144a7565b60405180910390a461190281600087878787612582565b5050505050565b6119a1828260405160240161191f9291906144d0565b6040516020818303038152906040527f9710a9d0000000000000000000000000000000000000000000000000000000007bffffffffffffffffffffffffffffffffffffffffffffffffffffffff19166020820180517bffffffffffffffffffffffffffffffffffffffffffffffffffffffff8381831617835250505050612769565b5050565b606060008214156119ed576040518060400160405280600181526020017f30000000000000000000000000000000000000000000000000000000000000008152509050611b01565b600082905060005b60008214611a1f578080611a0890613c23565b915050600a82611a18919061452f565b91506119f5565b60008167ffffffffffffffff811115611a3b57611a3a612ec3565b5b6040519080825280601f01601f191660200182016040528015611a6d5781602001600182028036833780820191505090505b5090505b60008514611afa57600182611a869190614560565b9150600a85611a959190614594565b6030611aa19190614451565b60f81b818381518110611ab757611ab66139f2565b5b60200101907effffffffffffffffffffffffffffffffffffffffffffffffffffffffffffff1916908160001a905350600a85611af3919061452f565b9450611a71565b8093505050505b919050565b60606000825190506000811415611b2f5760405180602001604052806000815250915050611c99565b60006003600283611b409190614451565b611b4a919061452f565b6004611b5691906145c5565b90506000602082611b679190614451565b67ffffffffffffffff811115611b8057611b7f612ec3565b5b6040519080825280601f01601f191660200182016040528015611bb25781602001600182028036833780820191505090505b5090506000604051806060016040528060408152602001614be1604091399050600181016020830160005b86811015611c565760038101905062ffffff818a015116603f8160121c168401518060081b905060ff603f83600c1c1686015116810190508060081b905060ff603f8360061c1686015116810190508060081b905060ff603f831686015116810190508060e01b90508084526004840193505050611bdd565b506003860660018114611c705760028114611c8057611c8b565b613d3d60f01b6002830352611c8b565b603d60f81b60018303525b508484525050819450505050505b919050565b611d3481604051602401611cb29190612e9c565b6040516020818303038152906040527f41304fac000000000000000000000000000000000000000000000000000000007bffffffffffffffffffffffffffffffffffffffffffffffffffffffff19166020820180517bffffffffffffffffffffffffffffffffffffffffffffffffffffffff8381831617835250505050612769565b50565b8151835114611d7b576040517f08c379a0000000000000000000000000000000000000000000000000000000008152600401611d7290614691565b60405180910390fd5b600073ffffffffffffffffffffffffffffffffffffffff168473ffffffffffffffffffffffffffffffffffffffff161415611deb576040517f08c379a0000000000000000000000000000000000000000000000000000000008152600401611de290614723565b60405180910390fd5b6000611df5611733565b9050611e0581878787878761257a565b60005b8451811015611fb6576000858281518110611e2657611e256139f2565b5b602002602001015190506000858381518110611e4557611e446139f2565b5b60200260200101519050600080600084815260200190815260200160002060008b73ffffffffffffffffffffffffffffffffffffffff1673ffffffffffffffffffffffffffffffffffffffff16815260200190815260200160002054905081811015611ee6576040517f08c379a0000000000000000000000000000000000000000000000000000000008152600401611edd906147b5565b60405180910390fd5b81810360008085815260200190815260200160002060008c73ffffffffffffffffffffffffffffffffffffffff1673ffffffffffffffffffffffffffffffffffffffff168152602001908152602001600020819055508160008085815260200190815260200160002060008b73ffffffffffffffffffffffffffffffffffffffff1673ffffffffffffffffffffffffffffffffffffffff1681526020019081526020016000206000828254611f9b9190614451565b9250508190555050505080611faf90613c23565b9050611e08565b508473ffffffffffffffffffffffffffffffffffffffff168673ffffffffffffffffffffffffffffffffffffffff168273ffffffffffffffffffffffffffffffffffffffff167f4a39dc06d4c0dbc64b70af90fd698a233a518aa5d07e595d983b8c0526c8f7fb878760405161202d9291906147d5565b60405180910390a4612043818787878787612792565b505050505050565b600073ffffffffffffffffffffffffffffffffffffffff168473ffffffffffffffffffffffffffffffffffffffff1614156120bb576040517f08c379a00000000000000000000000000000000000000000000000000000000081526004016120b290614723565b60405180910390fd5b60006120c5611733565b90506120e58187876120d688612500565b6120df88612500565b8761257a565b600080600086815260200190815260200160002060008873ffffffffffffffffffffffffffffffffffffffff1673ffffffffffffffffffffffffffffffffffffffff1681526020019081526020016000205490508381101561217c576040517f08c379a0000000000000000000000000000000000000000000000000000000008152600401612173906147b5565b60405180910390fd5b83810360008087815260200190815260200160002060008973ffffffffffffffffffffffffffffffffffffffff1673ffffffffffffffffffffffffffffffffffffffff168152602001908152602001600020819055508360008087815260200190815260200160002060008873ffffffffffffffffffffffffffffffffffffffff1673ffffffffffffffffffffffffffffffffffffffff16815260200190815260200160002060008282546122319190614451565b925050819055508573ffffffffffffffffffffffffffffffffffffffff168773ffffffffffffffffffffffffffffffffffffffff168373ffffffffffffffffffffffffffffffffffffffff167fc3d58168c5ae7397731d063d5bbf3d657854427343f4c083240f7aacaa2d0f6288886040516122ae9291906144a7565b60405180910390a46122c4828888888888612582565b50505050505050565b6000600360009054906101000a900473ffffffffffffffffffffffffffffffffffffffff16905081600360006101000a81548173ffffffffffffffffffffffffffffffffffffffff021916908373ffffffffffffffffffffffffffffffffffffffff1602179055508173ffffffffffffffffffffffffffffffffffffffff168173ffffffffffffffffffffffffffffffffffffffff167f8be0079c531659141344cd1fd0a4f28419497f9722a3daafe3b4186f6b6457e060405160405180910390a35050565b8173ffffffffffffffffffffffffffffffffffffffff168373ffffffffffffffffffffffffffffffffffffffff161415612402576040517f08c379a00000000000000000000000000000000000000000000000000000000081526004016123f99061487e565b60405180910390fd5b80600160008573ffffffffffffffffffffffffffffffffffffffff1673ffffffffffffffffffffffffffffffffffffffff16815260200190815260200160002060008473ffffffffffffffffffffffffffffffffffffffff1673ffffffffffffffffffffffffffffffffffffffff16815260200190815260200160002060006101000a81548160ff0219169083151502179055508173ffffffffffffffffffffffffffffffffffffffff168373ffffffffffffffffffffffffffffffffffffffff167f17307eab39ab6107e8899845ad3d59bd9653f200f220920489ca2b5937696c31836040516124f39190612d3b565b60405180910390a3505050565b60606000600167ffffffffffffffff81111561251f5761251e612ec3565b5b60405190808252806020026020018201604052801561254d5781602001602082028036833780820191505090505b5090508281600081518110612565576125646139f2565b5b60200260200101818152505080915050919050565b505050505050565b6125a18473ffffffffffffffffffffffffffffffffffffffff16612979565b15612761578373ffffffffffffffffffffffffffffffffffffffff1663f23a6e6187878686866040518663ffffffff1660e01b81526004016125e79594939291906148f3565b602060405180830381600087803b15801561260157600080fd5b505af192505050801561263257506040513d601f19601f8201168201806040525081019061262f9190614962565b60015b6126d85761263e61499c565b806308c379a0141561269b57506126536149be565b8061265e575061269d565b806040517f08c379a00000000000000000000000000000000000000000000000000000000081526004016126929190612e9c565b60405180910390fd5b505b6040517f08c379a00000000000000000000000000000000000000000000000000000000081526004016126cf90614ac6565b60405180910390fd5b63f23a6e6160e01b7bffffffffffffffffffffffffffffffffffffffffffffffffffffffff1916817bffffffffffffffffffffffffffffffffffffffffffffffffffffffff19161461275f576040517f08c379a000000000000000000000000000000000000000000000000000000000815260040161275690614b58565b60405180910390fd5b505b505050505050565b60008151905060006a636f6e736f6c652e6c6f679050602083016000808483855afa5050505050565b6127b18473ffffffffffffffffffffffffffffffffffffffff16612979565b15612971578373ffffffffffffffffffffffffffffffffffffffff1663bc197c8187878686866040518663ffffffff1660e01b81526004016127f7959493929190614b78565b602060405180830381600087803b15801561281157600080fd5b505af192505050801561284257506040513d601f19601f8201168201806040525081019061283f9190614962565b60015b6128e85761284e61499c565b806308c379a014156128ab57506128636149be565b8061286e57506128ad565b806040517f08c379a00000000000000000000000000000000000000000000000000000000081526004016128a29190612e9c565b60405180910390fd5b505b6040517f08c379a00000000000000000000000000000000000000000000000000000000081526004016128df90614ac6565b60405180910390fd5b63bc197c8160e01b7bffffffffffffffffffffffffffffffffffffffffffffffffffffffff1916817bffffffffffffffffffffffffffffffffffffffffffffffffffffffff19161461296f576040517f08c379a000000000000000000000000000000000000000000000000000000000815260040161296690614b58565b60405180910390fd5b505b505050505050565b6000808273ffffffffffffffffffffffffffffffffffffffff163b119050919050565b8280546129a8906139c0565b90600052602060002090601f0160209004810192826129ca5760008555612a11565b82601f106129e357805160ff1916838001178555612a11565b82800160010185558215612a11579182015b82811115612a105782518255916020019190600101906129f5565b5b509050612a1e9190612b08565b5090565b828054828255906000526020600020908101928215612a71579160200282015b82811115612a70578251829080519060200190612a6092919061299c565b5091602001919060010190612a42565b5b509050612a7e9190612b25565b5090565b828054612a8e906139c0565b90600052602060002090601f016020900481019282612ab05760008555612af7565b82601f10612ac957803560ff1916838001178555612af7565b82800160010185558215612af7579182015b82811115612af6578235825591602001919060010190612adb565b5b509050612b049190612b08565b5090565b5b80821115612b21576000816000905550600101612b09565b5090565b5b80821115612b455760008181612b3c9190612b49565b50600101612b26565b5090565b508054612b55906139c0565b6000825580601f10612b675750612b86565b601f016020900490600052602060002090810190612b859190612b08565b5b50565b6000604051905090565b600080fd5b600080fd5b600073ffffffffffffffffffffffffffffffffffffffff82169050919050565b6000612bc882612b9d565b9050919050565b612bd881612bbd565b8114612be357600080fd5b50565b600081359050612bf581612bcf565b92915050565b6000819050919050565b612c0e81612bfb565b8114612c1957600080fd5b50565b600081359050612c2b81612c05565b92915050565b60008060408385031215612c4857612c47612b93565b5b6000612c5685828601612be6565b9250506020612c6785828601612c1c565b9150509250929050565b612c7a81612bfb565b82525050565b6000602082019050612c956000830184612c71565b92915050565b60007fffffffff0000000000000000000000000000000000000000000000000000000082169050919050565b612cd081612c9b565b8114612cdb57600080fd5b50565b600081359050612ced81612cc7565b92915050565b600060208284031215612d0957612d08612b93565b5b6000612d1784828501612cde565b91505092915050565b60008115159050919050565b612d3581612d20565b82525050565b6000602082019050612d506000830184612d2c565b92915050565b600080fd5b600060808284031215612d7157612d70612d56565b5b81905092915050565b60008060408385031215612d9157612d90612b93565b5b6000612d9f85828601612c1c565b925050602083013567ffffffffffffffff811115612dc057612dbf612b98565b5b612dcc85828601612d5b565b9150509250929050565b600060208284031215612dec57612deb612b93565b5b6000612dfa84828501612c1c565b91505092915050565b600081519050919050565b600082825260208201905092915050565b60005b83811015612e3d578082015181840152602081019050612e22565b83811115612e4c576000848401525b50505050565b6000601f19601f8301169050919050565b6000612e6e82612e03565b612e788185612e0e565b9350612e88818560208601612e1f565b612e9181612e52565b840191505092915050565b60006020820190508181036000830152612eb68184612e63565b905092915050565b600080fd5b7f4e487b7100000000000000000000000000000000000000000000000000000000600052604160045260246000fd5b612efb82612e52565b810181811067ffffffffffffffff82111715612f1a57612f19612ec3565b5b80604052505050565b6000612f2d612b89565b9050612f398282612ef2565b919050565b600067ffffffffffffffff821115612f5957612f58612ec3565b5b602082029050602081019050919050565b600080fd5b6000612f82612f7d84612f3e565b612f23565b90508083825260208201905060208402830185811115612fa557612fa4612f6a565b5b835b81811015612fce5780612fba8882612c1c565b845260208401935050602081019050612fa7565b5050509392505050565b600082601f830112612fed57612fec612ebe565b5b8135612ffd848260208601612f6f565b91505092915050565b600080fd5b600067ffffffffffffffff82111561302657613025612ec3565b5b61302f82612e52565b9050602081019050919050565b82818337600083830152505050565b600061305e6130598461300b565b612f23565b90508281526020810184848401111561307a57613079613006565b5b61308584828561303c565b509392505050565b600082601f8301126130a2576130a1612ebe565b5b81356130b284826020860161304b565b91505092915050565b600080600080600060a086880312156130d7576130d6612b93565b5b60006130e588828901612be6565b95505060206130f688828901612be6565b945050604086013567ffffffffffffffff81111561311757613116612b98565b5b61312388828901612fd8565b935050606086013567ffffffffffffffff81111561314457613143612b98565b5b61315088828901612fd8565b925050608086013567ffffffffffffffff81111561317157613170612b98565b5b61317d8882890161308d565b9150509295509295909350565b600067ffffffffffffffff8211156131a5576131a4612ec3565b5b602082029050602081019050919050565b60006131c96131c48461318a565b612f23565b905080838252602082019050602084028301858111156131ec576131eb612f6a565b5b835b8181101561321557806132018882612be6565b8452602084019350506020810190506131ee565b5050509392505050565b600082601f83011261323457613233612ebe565b5b81356132448482602086016131b6565b91505092915050565b6000806040838503121561326457613263612b93565b5b600083013567ffffffffffffffff81111561328257613281612b98565b5b61328e8582860161321f565b925050602083013567ffffffffffffffff8111156132af576132ae612b98565b5b6132bb85828601612fd8565b9150509250929050565b600081519050919050565b600082825260208201905092915050565b6000819050602082019050919050565b6132fa81612bfb565b82525050565b600061330c83836132f1565b60208301905092915050565b6000602082019050919050565b6000613330826132c5565b61333a81856132d0565b9350613345836132e1565b8060005b8381101561337657815161335d8882613300565b975061336883613318565b925050600181019050613349565b5085935050505092915050565b6000602082019050818103600083015261339d8184613325565b905092915050565b6000602082840312156133bb576133ba612b93565b5b60006133c984828501612be6565b91505092915050565b600060408201905081810360008301526133ec8185612e63565b905081810360208301526134008184612e63565b90509392505050565b61341281612bbd565b82525050565b600060208201905061342d6000830184613409565b92915050565b600080fd5b60008083601f84011261344e5761344d612ebe565b5b8235905067ffffffffffffffff81111561346b5761346a613433565b5b60208301915083600182028301111561348757613486612f6a565b5b9250929050565b600080602083850312156134a5576134a4612b93565b5b600083013567ffffffffffffffff8111156134c3576134c2612b98565b5b6134cf85828601613438565b92509250509250929050565b6134e481612d20565b81146134ef57600080fd5b50565b600081359050613501816134db565b92915050565b6000806040838503121561351e5761351d612b93565b5b600061352c85828601612be6565b925050602061353d858286016134f2565b9150509250929050565b6000806040838503121561355e5761355d612b93565b5b600061356c85828601612be6565b925050602061357d85828601612be6565b9150509250929050565b600080600080600060a086880312156135a3576135a2612b93565b5b60006135b188828901612be6565b95505060206135c288828901612be6565b94505060406135d388828901612c1c565b93505060606135e488828901612c1c565b925050608086013567ffffffffffffffff81111561360557613604612b98565b5b6136118882890161308d565b9150509295509295909350565b7f455243313135353a2062616c616e636520717565727920666f7220746865207a60008201527f65726f2061646472657373000000000000000000000000000000000000000000602082015250565b600061367a602b83612e0e565b91506136858261361e565b604082019050919050565b600060208201905081810360008301526136a98161366d565b9050919050565b7f4f776e61626c653a2063616c6c6572206973206e6f7420746865206f776e6572600082015250565b60006136e6602083612e0e565b91506136f1826136b0565b602082019050919050565b60006020820190508181036000830152613715816136d9565b9050919050565b600080fd5b600080fd5b600080fd5b600080833560016020038436030381126137485761374761371c565b5b80840192508235915067ffffffffffffffff82111561376a57613769613721565b5b60208301925060018202360383131561378657613785613726565b5b509250929050565b600080833560016020038436030381126137ab576137aa61371c565b5b80840192508235915067ffffffffffffffff8211156137cd576137cc613721565b5b6020830192506020820236038313156137e9576137e8613726565b5b509250929050565b600067ffffffffffffffff82111561380c5761380b612ec3565b5b602082029050602081019050919050565b600067ffffffffffffffff82111561383857613837612ec3565b5b61384182612e52565b9050602081019050919050565b600061386161385c8461381d565b612f23565b90508281526020810184848401111561387d5761387c613006565b5b61388884828561303c565b509392505050565b600082601f8301126138a5576138a4612ebe565b5b81356138b584826020860161384e565b91505092915050565b60006138d16138cc846137f1565b612f23565b905080838252602082019050602084028301858111156138f4576138f3612f6a565b5b835b8181101561393b57803567ffffffffffffffff81111561391957613918612ebe565b5b8086016139268982613890565b855260208501945050506020810190506138f6565b5050509392505050565b60006139523684846138be565b905092915050565b600060608201905061396f6000830186613409565b61397c6020830185612c71565b6139896040830184612c71565b949350505050565b7f4e487b7100000000000000000000000000000000000000000000000000000000600052602260045260246000fd5b600060028204905060018216806139d857607f821691505b602082108114156139ec576139eb613991565b5b50919050565b7f4e487b7100000000000000000000000000000000000000000000000000000000600052603260045260246000fd5b600081905092915050565b7f7b202274726169745f74797065223a20224d617374657220646567726565222c60008201527f202276616c7565223a2022000000000000000000000000000000000000000000602082015250565b6000613a88602b83613a21565b9150613a9382613a2c565b602b82019050919050565b6000613aa982612e03565b613ab38185613a21565b9350613ac3818560208601612e1f565b80840191505092915050565b7f227d000000000000000000000000000000000000000000000000000000000000600082015250565b6000613b05600283613a21565b9150613b1082613acf565b600282019050919050565b6000613b2682613a7b565b9150613b328284613a9e565b9150613b3d82613af8565b915081905092915050565b7f2c207b202274726169745f74797065223a20224d61737465722064656772656560008201527f222c202276616c7565223a202200000000000000000000000000000000000000602082015250565b6000613ba4602d83613a21565b9150613baf82613b48565b602d82019050919050565b6000613bc68285613a9e565b9150613bd182613b97565b9150613bdd8284613a9e565b9150613be882613af8565b91508190509392505050565b7f4e487b7100000000000000000000000000000000000000000000000000000000600052601160045260246000fd5b6000613c2e82612bfb565b91507fffffffffffffffffffffffffffffffffffffffffffffffffffffffffffffffff821415613c6157613c60613bf4565b5b600182019050919050565b7f2c207b202274726169745f74797065223a2022457870657269656e6365222c2060008201527f2276616c7565223a202200000000000000000000000000000000000000000000602082015250565b6000613cc8602a83613a21565b9150613cd382613c6c565b602a82019050919050565b6000613ce982613cbb565b9150613cf58284613a9e565b9150613d0082613af8565b915081905092915050565b6000613d178285613a9e565b9150613d2282613cbb565b9150613d2e8284613a9e565b9150613d3982613af8565b91508190509392505050565b7f7b226e616d65223a202200000000000000000000000000000000000000000000600082015250565b6000613d7b600a83613a21565b9150613d8682613d45565b600a82019050919050565b7f20427573696e6573732043617264202330300000000000000000000000000000600082015250565b6000613dc7601283613a21565b9150613dd282613d91565b601282019050919050565b7f222c20226465736372697074696f6e223a20224e465420427573696e6573732060008201527f43617264222c2022696d616765223a2022697066733a2f2f0000000000000000602082015250565b6000613e39603883613a21565b9150613e4482613ddd565b603882019050919050565b7f222c202261747472696275746573223a205b2000000000000000000000000000600082015250565b6000613e85601383613a21565b9150613e9082613e4f565b601382019050919050565b7f5d7d000000000000000000000000000000000000000000000000000000000000600082015250565b6000613ed1600283613a21565b9150613edc82613e9b565b600282019050919050565b6000613ef282613d6e565b9150613efe8288613a9e565b9150613f0982613dba565b9150613f158287613a9e565b9150613f2082613e2c565b9150613f2c8286613a9e565b9150613f3782613e78565b9150613f438285613a9e565b9150613f4f8284613a9e565b9150613f5a82613ec4565b91508190509695505050505050565b7f646174613a6170706c69636174696f6e2f6a736f6e3b6261736536342c000000600082015250565b6000613f9f601d83613a21565b9150613faa82613f69565b601d82019050919050565b6000613fc082613f92565b9150613fcc8284613a9e565b915081905092915050565b7f455243313135353a207472616e736665722063616c6c6572206973206e6f742060008201527f6f776e6572206e6f7220617070726f7665640000000000000000000000000000602082015250565b6000614033603283612e0e565b915061403e82613fd7565b604082019050919050565b6000602082019050818103600083015261406281614026565b9050919050565b7f455243313135353a206163636f756e747320616e6420696473206c656e67746860008201527f206d69736d617463680000000000000000000000000000000000000000000000602082015250565b60006140c5602983612e0e565b91506140d082614069565b604082019050919050565b600060208201905081810360008301526140f4816140b8565b9050919050565b7f455243313135353a2043616c6c657220616c726561647920686173207468697360008201527f20627573696e6573732063617264000000000000000000000000000000000000602082015250565b6000614157602e83612e0e565b9150614162826140fb565b604082019050919050565b600060208201905081810360008301526141868161414a565b9050919050565b7f455243313135353a204f776e6572206973206f7574206f6620427573696e657360008201527f7320436172640000000000000000000000000000000000000000000000000000602082015250565b60006141e9602683612e0e565b91506141f48261418d565b604082019050919050565b60006020820190508181036000830152614218816141dc565b9050919050565b6000819050919050565b6000819050919050565b600061424e6142496142448461421f565b614229565b612bfb565b9050919050565b61425e81614233565b82525050565b60006060820190506142796000830186613409565b6142866020830185612c71565b6142936040830184614255565b949350505050565b7f455243313135353a2063616c6c6572206973206e6f74206f776e6572206e6f7260008201527f20617070726f7665640000000000000000000000000000000000000000000000602082015250565b60006142f7602983612e0e565b91506143028261429b565b604082019050919050565b60006020820190508181036000830152614326816142ea565b9050919050565b7f4f776e61626c653a206e6577206f776e657220697320746865207a65726f206160008201527f6464726573730000000000000000000000000000000000000000000000000000602082015250565b6000614389602683612e0e565b91506143948261432d565b604082019050919050565b600060208201905081810360008301526143b88161437c565b9050919050565b7f455243313135353a206d696e7420746f20746865207a65726f2061646472657360008201527f7300000000000000000000000000000000000000000000000000000000000000602082015250565b600061441b602183612e0e565b9150614426826143bf565b604082019050919050565b6000602082019050818103600083015261444a8161440e565b9050919050565b600061445c82612bfb565b915061446783612bfb565b9250827fffffffffffffffffffffffffffffffffffffffffffffffffffffffffffffffff0382111561449c5761449b613bf4565b5b828201905092915050565b60006040820190506144bc6000830185612c71565b6144c96020830184612c71565b9392505050565b600060408201905081810360008301526144ea8185612e63565b90506144f96020830184612c71565b9392505050565b7f4e487b7100000000000000000000000000000000000000000000000000000000600052601260045260246000fd5b600061453a82612bfb565b915061454583612bfb565b92508261455557614554614500565b5b828204905092915050565b600061456b82612bfb565b915061457683612bfb565b92508282101561458957614588613bf4565b5b828203905092915050565b600061459f82612bfb565b91506145aa83612bfb565b9250826145ba576145b9614500565b5b828206905092915050565b60006145d082612bfb565b91506145db83612bfb565b9250817fffffffffffffffffffffffffffffffffffffffffffffffffffffffffffffffff048311821515161561461457614613613bf4565b5b828202905092915050565b7f455243313135353a2069647320616e6420616d6f756e7473206c656e6774682060008201527f6d69736d61746368000000000000000000000000000000000000000000000000602082015250565b600061467b602883612e0e565b91506146868261461f565b604082019050919050565b600060208201905081810360008301526146aa8161466e565b9050919050565b7f455243313135353a207472616e7366657220746f20746865207a65726f20616460008201527f6472657373000000000000000000000000000000000000000000000000000000602082015250565b600061470d602583612e0e565b9150614718826146b1565b604082019050919050565b6000602082019050818103600083015261473c81614700565b9050919050565b7f455243313135353a20696e73756666696369656e742062616c616e636520666f60008201527f72207472616e7366657200000000000000000000000000000000000000000000602082015250565b600061479f602a83612e0e565b91506147aa82614743565b604082019050919050565b600060208201905081810360008301526147ce81614792565b9050919050565b600060408201905081810360008301526147ef8185613325565b905081810360208301526148038184613325565b90509392505050565b7f455243313135353a2073657474696e6720617070726f76616c2073746174757360008201527f20666f722073656c660000000000000000000000000000000000000000000000602082015250565b6000614868602983612e0e565b91506148738261480c565b604082019050919050565b600060208201905081810360008301526148978161485b565b9050919050565b600081519050919050565b600082825260208201905092915050565b60006148c58261489e565b6148cf81856148a9565b93506148df818560208601612e1f565b6148e881612e52565b840191505092915050565b600060a0820190506149086000830188613409565b6149156020830187613409565b6149226040830186612c71565b61492f6060830185612c71565b818103608083015261494181846148ba565b90509695505050505050565b60008151905061495c81612cc7565b92915050565b60006020828403121561497857614977612b93565b5b60006149868482850161494d565b91505092915050565b60008160e01c9050919050565b600060033d11156149bb5760046000803e6149b860005161498f565b90505b90565b600060443d10156149ce57614a51565b6149d6612b89565b60043d036004823e80513d602482011167ffffffffffffffff821117156149fe575050614a51565b808201805167ffffffffffffffff811115614a1c5750505050614a51565b80602083010160043d038501811115614a39575050505050614a51565b614a4882602001850186612ef2565b82955050505050505b90565b7f455243313135353a207472616e7366657220746f206e6f6e204552433131353560008201527f526563656976657220696d706c656d656e746572000000000000000000000000602082015250565b6000614ab0603483612e0e565b9150614abb82614a54565b604082019050919050565b60006020820190508181036000830152614adf81614aa3565b9050919050565b7f455243313135353a204552433131353552656365697665722072656a6563746560008201527f6420746f6b656e73000000000000000000000000000000000000000000000000602082015250565b6000614b42602883612e0e565b9150614b4d82614ae6565b604082019050919050565b60006020820190508181036000830152614b7181614b35565b9050919050565b600060a082019050614b8d6000830188613409565b614b9a6020830187613409565b8181036040830152614bac8186613325565b90508181036060830152614bc08185613325565b90508181036080830152614bd481846148ba565b9050969550505050505056fe4142434445464748494a4b4c4d4e4f505152535455565758595a6162636465666768696a6b6c6d6e6f707172737475767778797a303132333435363738392b2fa2646970667358221220f6a3437501758fe6012d4d29a46c0129c08205a1488d4711ee283046f061f98d64736f6c63430008090033",
  "linkReferences": {},
  "deployedLinkReferences": {}
}